{
  "contractName": "Coin",
  "abi": [
    {
      "inputs": [],
      "stateMutability": "nonpayable",
      "type": "constructor"
    },
    {
      "inputs": [
        {
          "internalType": "uint256",
          "name": "requested",
          "type": "uint256"
        },
        {
          "internalType": "uint256",
          "name": "available",
          "type": "uint256"
        }
      ],
      "name": "insufficientBalance",
      "type": "error"
    },
    {
      "anonymous": false,
      "inputs": [
        {
          "indexed": false,
          "internalType": "address",
          "name": "from",
          "type": "address"
        },
        {
          "indexed": false,
          "internalType": "address",
          "name": "to",
          "type": "address"
        },
        {
          "indexed": false,
          "internalType": "uint256",
          "name": "amount",
          "type": "uint256"
        }
      ],
      "name": "Sent",
      "type": "event"
    },
    {
      "inputs": [
        {
          "internalType": "address",
          "name": "",
          "type": "address"
        }
      ],
      "name": "balances",
      "outputs": [
        {
          "internalType": "uint256",
          "name": "",
          "type": "uint256"
        }
      ],
      "stateMutability": "view",
      "type": "function"
    },
    {
      "inputs": [],
      "name": "minter",
      "outputs": [
        {
          "internalType": "address",
          "name": "",
          "type": "address"
        }
      ],
      "stateMutability": "view",
      "type": "function"
    },
    {
      "inputs": [
        {
          "internalType": "address",
          "name": "receiver",
          "type": "address"
        },
        {
          "internalType": "uint256",
          "name": "amount",
          "type": "uint256"
        }
      ],
      "name": "mint",
      "outputs": [],
      "stateMutability": "nonpayable",
      "type": "function"
    },
    {
      "inputs": [
        {
          "internalType": "address",
          "name": "receiver",
          "type": "address"
        },
        {
          "internalType": "uint256",
          "name": "amount",
          "type": "uint256"
        }
      ],
      "name": "send",
      "outputs": [],
      "stateMutability": "nonpayable",
      "type": "function"
    },
    {
      "inputs": [
        {
          "internalType": "address",
          "name": "addr",
          "type": "address"
        }
      ],
      "name": "getBalance",
      "outputs": [
        {
          "internalType": "uint256",
          "name": "",
          "type": "uint256"
        }
      ],
      "stateMutability": "view",
      "type": "function"
    }
  ],
  "bytecode": "0x608060405234801561001057600080fd5b50336000806101000a81548173ffffffffffffffffffffffffffffffffffffffff021916908373ffffffffffffffffffffffffffffffffffffffff160217905550610630806100606000396000f3fe608060405234801561001057600080fd5b50600436106100575760003560e01c8063075461721461005c57806327e235e31461007a57806340c10f19146100aa578063d0679d34146100c6578063f8b2cb4f146100e2575b600080fd5b610064610112565b60405161007191906103ff565b60405180910390f35b610094600480360381019061008f919061044b565b610136565b6040516100a19190610491565b60405180910390f35b6100c460048036038101906100bf91906104d8565b61014e565b005b6100e060048036038101906100db91906104d8565b610200565b005b6100fc60048036038101906100f7919061044b565b610375565b6040516101099190610491565b60405180910390f35b60008054906101000a900473ffffffffffffffffffffffffffffffffffffffff1681565b60016020528060005260406000206000915090505481565b60008054906101000a900473ffffffffffffffffffffffffffffffffffffffff1673ffffffffffffffffffffffffffffffffffffffff163373ffffffffffffffffffffffffffffffffffffffff16146101a657600080fd5b80600160008473ffffffffffffffffffffffffffffffffffffffff1673ffffffffffffffffffffffffffffffffffffffff16815260200190815260200160002060008282546101f59190610547565b925050819055505050565b600160003373ffffffffffffffffffffffffffffffffffffffff1673ffffffffffffffffffffffffffffffffffffffff168152602001908152602001600020548111156102c55780600160003373ffffffffffffffffffffffffffffffffffffffff1673ffffffffffffffffffffffffffffffffffffffff168152602001908152602001600020546040517fc7a28c790000000000000000000000000000000000000000000000000000000081526004016102bc92919061059d565b60405180910390fd5b80600160003373ffffffffffffffffffffffffffffffffffffffff1673ffffffffffffffffffffffffffffffffffffffff168152602001908152602001600020600082825461031491906105c6565b9250508190555080600160008473ffffffffffffffffffffffffffffffffffffffff1673ffffffffffffffffffffffffffffffffffffffff168152602001908152602001600020600082825461036a9190610547565b925050819055505050565b6000600160008373ffffffffffffffffffffffffffffffffffffffff1673ffffffffffffffffffffffffffffffffffffffff168152602001908152602001600020549050919050565b600073ffffffffffffffffffffffffffffffffffffffff82169050919050565b60006103e9826103be565b9050919050565b6103f9816103de565b82525050565b600060208201905061041460008301846103f0565b92915050565b600080fd5b610428816103de565b811461043357600080fd5b50565b6000813590506104458161041f565b92915050565b6000602082840312156104615761046061041a565b5b600061046f84828501610436565b91505092915050565b6000819050919050565b61048b81610478565b82525050565b60006020820190506104a66000830184610482565b92915050565b6104b581610478565b81146104c057600080fd5b50565b6000813590506104d2816104ac565b92915050565b600080604083850312156104ef576104ee61041a565b5b60006104fd85828601610436565b925050602061050e858286016104c3565b9150509250929050565b7f4e487b7100000000000000000000000000000000000000000000000000000000600052601160045260246000fd5b600061055282610478565b915061055d83610478565b9250827fffffffffffffffffffffffffffffffffffffffffffffffffffffffffffffffff0382111561059257610591610518565b5b828201905092915050565b60006040820190506105b26000830185610482565b6105bf6020830184610482565b9392505050565b60006105d182610478565b91506105dc83610478565b9250828210156105ef576105ee610518565b5b82820390509291505056fea2646970667358221220d34bd511b11846531b20e3bdc56c7a8be2460922cd1b53f9a83f5f10d5b9e19164736f6c634300080b0033",
  "immutableReferences": {},
  "source": "// SPDX-License-Identifier: MIT\npragma solidity >=0.7.0 <0.9.0;\n\ncontract Coin {\n    address public minter;\n    mapping(address => uint256) public balances;\n\n    event Sent(address from, address to, uint256 amount);\n    error insufficientBalance(uint requested, uint available);\n\n    // constructor only called when deploy contract\n    constructor() {\n        minter = msg.sender;\n    }\n\n    // make a new coins and send them to an address\n    // only the owner can send these coins\n    function mint(address receiver, uint256 amount) public {\n        require(msg.sender == minter);\n        balances[receiver] += amount;\n    }\n\n    function send(address receiver, uint256 amount) public {\n        if (amount > balances[msg.sender]) \n            revert insufficientBalance({\n                requested: amount,\n                available: balances[msg.sender]\n            });\n        balances[msg.sender] -= amount;\n        balances[receiver] += amount;\n    }\n\n    function getBalance(address addr) public view returns(uint) {\n        return balances[addr];\n    }\n\n}\n",
  "sourcePath": "/home/thanhthanh/Documents/study/truffle_demo/contracts/subcurrency.sol",
  "compiler": {
    "name": "solc",
    "version": "0.8.11+commit.d7f03943.Emscripten.clang"
  },
  "schemaVersion": "3.4.5",
  "updatedAt": "2022-03-07T08:43:43.869Z",
  "devdoc": {
    "kind": "dev",
    "methods": {},
    "version": 1
  },
  "userdoc": {
    "kind": "user",
    "methods": {},
    "version": 1
  }
}