{
  "contractName": "Gas",
  "abi": [
    {
      "anonymous": false,
      "inputs": [
        {
          "indexed": true,
          "internalType": "address",
          "name": "_from",
          "type": "address"
        },
        {
          "indexed": false,
          "internalType": "uint256",
          "name": "_value",
          "type": "uint256"
        }
      ],
      "name": "Log",
      "type": "event"
    },
    {
      "inputs": [],
      "name": "i",
      "outputs": [
        {
          "internalType": "uint256",
          "name": "",
          "type": "uint256"
        }
      ],
      "stateMutability": "view",
      "type": "function"
    },
    {
      "inputs": [],
      "name": "forever",
      "outputs": [],
      "stateMutability": "nonpayable",
      "type": "function"
    }
  ],
  "bytecode": "0x60806040526000805534801561001457600080fd5b50610184806100246000396000f3fe608060405234801561001057600080fd5b50600436106100365760003560e01c80639ff9a6031461003b578063e5aa3d5814610045575b600080fd5b610043610063565b005b61004d6100b4565b60405161005a91906100d3565b60405180910390f35b3373ffffffffffffffffffffffffffffffffffffffff167ff950957d2407bed19dc99b718b46b4ce6090c05589006dfb86fd22c34865b23e60646040516100aa9190610133565b60405180910390a2565b60005481565b6000819050919050565b6100cd816100ba565b82525050565b60006020820190506100e860008301846100c4565b92915050565b6000819050919050565b6000819050919050565b600061011d610118610113846100ee565b6100f8565b6100ba565b9050919050565b61012d81610102565b82525050565b60006020820190506101486000830184610124565b9291505056fea26469706673582212201fe64cfe76934e76e525e9351a819acfcafa42d47000e401f9b38f737be766d064736f6c634300080b0033",
  "immutableReferences": {},
  "source": "// SPDX-License-Identifier: MIT\npragma solidity >=0.4.22 <0.9.0;\n\ncontract Gas {\n    uint public i = 0;\n\n    event Log(address indexed _from, uint _value);\n    // Using up all of the gas that you send causes your transaction to fail.\n    // State changes are undone.\n    // Gas spent are not refunded.\n    function forever() public  {\n        // Here we run a loop until all of the gas are spent\n        // and the transaction fails\n        \n        \n        emit Log(msg.sender, 100);\n    }\n}",
  "sourcePath": "/home/thanhthanh/Documents/study/truffle_demo/contracts/Gas.sol",
  "compiler": {
    "name": "solc",
    "version": "0.8.11+commit.d7f03943.Emscripten.clang"
  },
  "schemaVersion": "3.4.5",
  "updatedAt": "2022-02-28T04:56:29.310Z",
  "networkType": "ethereum",
  "devdoc": {
    "kind": "dev",
    "methods": {},
    "version": 1
  },
  "userdoc": {
    "kind": "user",
    "methods": {},
    "version": 1
  }
}